:100000000C942A000C9447000C9447000C94470071
:100010000C9447000C9447000C9447000C94470044
:100020000C9447000C9447000C947A130C944700EE
:100030000C9447000C9447000C9447000C94470024
:100040000C9447000C9447000C9447000C94470014
:100050000C94470011241FBECFE5D8E0DEBFCDBF12
:1000600011E0A0E6B0E0E6EFFCE202C005900D92E0
:10007000A038B107D9F711E0A0E8B1E001C01D92A6
:10008000A438B107E1F70E94C9140C9479160C94B6
:100090000000EF92FF920F931F937B018C0120E0F1
:1000A00030E040E05FE40E94F50388238CF0C80153
:1000B000B70120E030E040E05FE40E94C1010E940F
:1000C000B3049B01AC01205030404040504806C072
:1000D000C801B7010E94B3049B01AC01B901CA0178
:1000E0001F910F91FF90EF900895A0E0B0E0EBE733
:1000F000F0E00C94FD15DC012B01FA019C9192308B
:1001000008F439C1EB018881823008F433C194309E
:1001100069F4843009F02FC111969C91119789815F
:10012000981709F428C1AEE6B0E025C1843009F47F
:1001300021C18230A9F4923009F01DC19A01AD01AC
:1001400088E0EA010990AE01E90109929E0181501F
:10015000C1F7E201898111969C918923818308C1AD
:10016000923009F407C112962D903C901397EB0141
:100170008A819B811496AD90BD90CD90DC901797AD
:10018000EC80FD800E811F819101281B390BB90184
:1001900037FF04C066277727621B730B6032710537
:1001A0000CF061C0121613066CF537014801062EDB
:1001B00004C096948794779467940A94D2F721E0C8
:1001C00030E040E050E004C0220F331F441F551FB1
:1001D0006A95D2F721503040404050402E213F21B7
:1001E00040235123211531054105510521F021E01E
:1001F00030E040E050E079018A01E628F72808293C
:1002000019293CC0232BD1F1260E371E350146019A
:10021000062E04C096948794779467940A94D2F734
:1002200021E030E040E050E004C0220F331F441FC3
:10023000551F6A95D2F721503040404050402A2146
:100240003B214C215D21211531054105510521F04E
:1002500021E030E040E050E059016A01A628B728CB
:10026000C828D9280BC0821593052CF01C01AA249C
:10027000BB24650103C0EE24FF24870111969C91E5
:10028000D20111968C91981709F445C0992339F041
:10029000A80197012A193B094C095D0906C0A6016E
:1002A00095012E193F09400B510B57FD08C01182D3
:1002B0003382228224833583468357831DC081E0A5
:1002C00081833382228288279927DC01821B930B4A
:1002D000A40BB50B84839583A683B7830DC0220F2F
:1002E000331F441F551F24833583468357838281E0
:1002F000938101979383828324813581468157813D
:10030000DA01C9010197A109B1098F5F9F4FAF4F72
:10031000BF4328F30BC0918333822282EA0CFB1C7B
:100320000C1D1D1DE482F5820683178383E0808304
:10033000248135814681578157FF1AC0C901AA27F8
:1003400097FDA095BA2F81709070A070B0705695EF
:10035000479537952795822B932BA42BB52B848318
:100360009583A683B7838281938101969383828349
:10037000DF0101C0D201CD01CDB7DEB7E2E10C94BF
:100380001916A0E2B0E0E7ECF1E00C9409166983DD
:100390007A838B839C832D833E834F835887E9E048
:1003A000EE2EF12CEC0EFD1ECE010196B7010E943F
:1003B000A4068E010F5E1F4FCE010596B8010E9464
:1003C000A4068A8991E089278A8BC701B801AE010A
:1003D000475E5F4F0E9475000E94CF05A096E6E041
:1003E0000C942516A0E2B0E0E8EFF1E00C940916B9
:1003F00069837A838B839C832D833E834F835887C5
:10040000F9E0EF2EF12CEC0EFD1ECE010196B701A6
:100410000E94A4068E010F5E1F4FCE010596B80103
:100420000E94A406C701B801AE01475E5F4F0E945B
:1004300075000E94CF05A096E6E00C942516A0E278
:10044000B0E0E5E2F2E00C94FD1569837A838B83DA
:100450009C832D833E834F835887CE010196BE0136
:10046000675F7F4F0E94A406CE010596BE016F5EB6
:100470007F4F0E94A4069985923088F08989823046
:10048000C8F0943019F4823051F404C0843029F457
:10049000923081F48EE690E0C6C0923049F420E0BC
:1004A0009A858A89981321E02A87CE010996BBC0D4
:1004B000823049F420E09A858A89981321E02A8BBA
:1004C000CE014196B0C02D843E844F8458886D88FB
:1004D0007E888F88988CEE24FF248701AA24BB2471
:1004E000650140E050E060E070E0E0E0F0E0C10174
:1004F00081709070892BE9F0E60CF71C081D191D1E
:100500009A01AB012A0D3B1D4C1D5D1D80E090E062
:10051000A0E0B0E0E614F7040805190520F481E036
:1005200090E0A0E0B0E0BA01A901480F591F6A1F8E
:100530007B1FAA0CBB1CCC1CDD1C97FE08C081E0F5
:1005400090E0A0E0B0E0A82AB92ACA2ADB2A3196B6
:10055000E032F10549F0660C771C881C991C569412
:10056000479437942794C3CFFA85EA892B893C892D
:100570008B859C85280F391F2E5F3F4F17C0CA01FE
:1005800081709070892B61F016950795F794E79428
:1005900080E090E0A0E0B0E8E82AF92A0A2B1B2BC3
:1005A00076956795579547952F5F3F4F77FDE7CF36
:1005B0000CC0440F551F661F771F17FD4160EE0CDE
:1005C000FF1C001F111F21503040403090E05907A0
:1005D00090E0690790E4790760F32B8F3C8FDB0193
:1005E000CA018F779070A070B07080349105A1051A
:1005F000B10561F447FD0AC0E114F10401051105DC
:1006000029F0405C5F4F6F4F7F4F40781A8EFE1786
:1006100011F081E08A8F4D8F5E8F6F8F78A383E01A
:10062000898FCE0149960E94CF05A096E2E10C94F5
:100630001916A8E1B0E0EFE1F3E00C940516698328
:100640007A838B839C832D833E834F835887B9E0C5
:10065000EB2EF12CEC0EFD1ECE010196B7010E948F
:10066000A4068E010F5E1F4FCE010596B8010E94B1
:10067000A4062985223008F47EC03989323010F46E
:10068000B8017CC08A859A8989278A87243011F02D
:10069000223031F4231709F06EC06EE670E06EC0B0
:1006A000343039F41D861E861F86188A1C861B86E8
:1006B00004C0323021F484E08987B7015FC02B8504
:1006C0003C858B899C89281B390B3C872B87ED84C3
:1006D000FE840F851889AD88BE88CF88D88CEA142F
:1006E000FB040C051D0540F4EE0CFF1C001F111F40
:1006F000215030403C872B8720E030E040E050E044
:1007000080E090E0A0E0B0E460E070E0EA14FB0478
:100710000C051D0540F0282B392B4A2B5B2BEA18C2
:10072000FB080C091D09B695A79597958795EE0CC2
:10073000FF1C001F111F6F5F7F4F6F31710531F775
:10074000DA01C9018F779070A070B0708034910584
:10075000A105B10561F427FD0AC0E114F10401050A
:10076000110529F0205C3F4F4F4F5F4F20782D87B8
:100770003E874F87588BBE01675F7F4FCB010E943A
:10078000CF056896EAE00C942116A8E1B0E0EBEC06
:10079000F3E00C94091669837A838B839C832D8301
:1007A0003E834F83588789E0E82EF12CEC0EFD1E26
:1007B000CE010196B7010E94A4068E010F5E1F4F65
:1007C000CE010596B8010E94A4068985823040F0CA
:1007D0008989823028F0C701B8010E941C0701C036
:1007E0008FEF6896E6E00C942516A8E1B0E0EBEFF9
:1007F000F3E00C94091669837A838B839C832D83A1
:100800003E834F83588789E0E82EF12CEC0EFD1EC5
:10081000CE010196B7010E94A4068E010F5E1F4F04
:10082000CE010596B8010E94A4068985823040F069
:100830008989823028F0C701B8010E941C0701C0D5
:100840008FEF6896E6E00C942516A8E1B0E0EBE2A5
:10085000F4E00C94091669837A838B839C832D833F
:100860003E834F83588789E0E82EF12CEC0EFD1E65
:10087000CE010196B7010E94A4068E010F5E1F4FA4
:10088000CE010596B8010E94A4068985823040F009
:100890008989823028F0C701B8010E941C0701C075
:1008A00081E06896E6E00C942516A8E0B0E0EBE560
:1008B000F4E00C9406169B01AC0183E08983DA0115
:1008C000C9018827B7FD83959927AA27BB27B82E8A
:1008D000211531054105510519F482E089833AC09B
:1008E0008823A9F0203080E0380780E0480780E8BE
:1008F000580729F460E070E080E09FEC30C0EE24FF
:10090000FF248701E21AF30A040B150B02C07901D8
:100910008A018EE1C82ED12CDC82CB82ED82FE8250
:100920000F831887C801B7010E9480050197181628
:10093000190684F4082E04C0EE0CFF1C001F111FC2
:100940000A94D2F7ED82FE820F831887C81AD90A5B
:10095000DC82CB82BA82CE0101960E94CF05289616
:10096000E9E00C942216ACE0B0E0E9EBF4E00C9482
:100970000D1669837A838B839C83CE010196BE0119
:100980006B5F7F4F0E94A4068D81823061F18230BF
:1009900050F1843021F48E81882351F12EC02F81B3
:1009A000388537FD20C06E812F3131051CF066235C
:1009B000F9F023C08EE190E0821B930B29853A85E4
:1009C0004B855C8504C056954795379527958A9544
:1009D000D2F76623B1F050954095309521953F4F61
:1009E0004F4F5F4F0EC020E030E040E050E009C0C4
:1009F0002FEF3FEF4FEF5FE704C020E030E040E033
:100A000050E8B901CA012C96E2E00C942916A8E03E
:100A1000B0E0EDE0F5E00C9405167B018C0161156A
:100A200071058105910519F482E0898360C083E036
:100A300089838EE1C82ED12CDC82CB82ED82FE82AE
:100A40000F831887C801B7010E948005FC01319708
:100A5000F7FF3BC0222733272E1B3F0B57016801AE
:100A6000022E04C0D694C794B794A7940A94D2F7E0
:100A700040E050E060E070E081E090E0A0E0B0E0B5
:100A800004C0880F991FAA1FBB1F2A95D2F7019790
:100A9000A109B1098E219F21A023B1230097A105AF
:100AA000B10521F041E050E060E070E04A295B29A7
:100AB0006C297D294D835E836F8378878EE190E07A
:100AC0008E1B9F0B9C838B8312C0309781F00E2E60
:100AD00004C0EE0CFF1C001F111F0A94D2F7ED8218
:100AE000FE820F831887CE1ADF0ADC82CB821A823D
:100AF000CE0101960E94CF052896EAE00C942116BB
:100B0000EF92FF920F931F937B018C0180E0E81618
:100B100080E0F80681E0080780E0180788F48FEF8E
:100B2000E816F1040105110531F028F088E090E0A5
:100B3000A0E0B0E017C080E090E0A0E0B0E012C01C
:100B400080E0E81680E0F80680E0080781E01807FA
:100B500028F088E190E0A0E0B0E004C080E190E0FF
:100B6000A0E0B0E020E230E040E050E0281B390B8C
:100B70004A0B5B0B04C016950795F794E7948A958A
:100B8000D2F7F701EA58FF4F8081281B310941094C
:100B90005109C9011F910F91FF90EF900895DF92C5
:100BA000EF92FF920F931F93FC01E480F580068182
:100BB0001781D1808081823048F480E090E0A0E10C
:100BC000B0E0E82AF92A0A2B1B2BA5C0843009F4CF
:100BD0009FC0823021F4EE24FF24870105C0E11478
:100BE000F1040105110519F4E0E0F0E096C062811E
:100BF00073819FEF623879070CF05BC022E83FEF0A
:100C0000261B370B2A3131052CF020E030E040E084
:100C100050E02AC0B801A701022E04C0769567955E
:100C2000579547950A94D2F781E090E0A0E0B0E0B4
:100C300004C0880F991FAA1FBB1F2A95D2F70197DE
:100C4000A109B1098E219F21A023B1230097A105FD
:100C5000B10521F081E090E0A0E0B0E09A01AB01A5
:100C6000282B392B4A2B5B2BDA01C9018F77907027
:100C7000A070B07080349105A105B10539F427FF4B
:100C800009C0205C3F4F4F4F5F4F04C0215C3F4F76
:100C90004F4F5F4FE0E0F0E02030A0E03A07A0E0E7
:100CA0004A07A0E45A0710F0E1E0F0E079018A0178
:100CB00027C06038710564F5FB01E158FF4FD8018A
:100CC000C7018F779070A070B07080349105A10536
:100CD000B10539F4E7FE0DC080E490E0A0E0B0E09B
:100CE00004C08FE390E0A0E0B0E0E80EF91E0A1F18
:100CF0001B1F17FF05C016950795F794E7943196CB
:100D000087E016950795F794E7948A95D1F705C083
:100D1000EE24FF248701EFEFF0E06E2F6795662742
:100D20006795902F9F77D794DD24D7948E2F869543
:100D3000492F462B582F5D29B701CA011F910F91EA
:100D4000FF90EF90DF900895FC01DB01408151811D
:100D50002281622F6F7770E0221F2227221F93814A
:100D6000892F880F822B282F30E0991F9927991FF0
:100D700011969C93119721153105A9F5411551053F
:100D80006105710511F482E037C082E89FEF139688
:100D90009C938E9312979A01AB0167E0220F331F49
:100DA000441F551F6A95D1F783E08C930DC0220F25
:100DB000331F441F551F12968D919C9113970197D5
:100DC00013969C938E931297203080E0380780E032
:100DD000480780E4580758F314962D933D934D939C
:100DE0005C93179708952F3F310579F4411551050C
:100DF0006105710519F484E08C93089564FF03C0C4
:100E000081E08C9312C01C9210C02F573040139673
:100E10003C932E93129783E08C9387E0440F551FE9
:100E2000661F771F8A95D1F7706414964D935D9372
:100E30006D937C93179708951F93DC01FB019C91A0
:100E4000923008F447C08081823008F443C0943067
:100E500051F411961C91843099F58181682F70E0CE
:100E6000611B71093FC0843021F0923031F482302F
:100E7000B9F18181882389F12DC011961C911197B8
:100E80008230F1F081811817D9F412962D913C919E
:100E90001397828193818217930794F0281739075B
:100EA000BCF014968D919D910D90BC91A02D248144
:100EB000358146815781281739074A075B0718F49F
:100EC000112341F00AC082179307A407B50740F425
:100ED000112319F061E070E005C06FEF7FEF02C0F1
:100EE00060E070E0CB011F910895DF93CF9300D0B5
:100EF000CDB7DEB79A838983E7E2F0E01082A7E2FC
:100F0000B0E0E7E2F0E02081E981FA819081E981B7
:100F1000FA818281982BE981FA818181892B822B48
:100F20008C93A6E2B0E0E6E2F0E02081E981FA816C
:100F30009381E981FA818481982BE981FA81858105
:100F4000892B822B8C93A0E5B0E0E0E5F0E0908166
:100F5000E981FA818681892B8C93A6E2B0E0E6E2F2
:100F6000F0E0808180688C930F900F90CF91DF919B
:100F70000895DF93CF93CDB7DEB7E7E2F0E01082BC
:100F8000E6E2F0E01082CF91DF910895DF93CF93F6
:100F900000D000D0CDB7DEB79A8389837C836B8382
:100FA000EB81FC8182818770EB81FC818283A7E2E7
:100FB000B0E0E7E2F0E08081807E8C93A7E2B0E0D1
:100FC000E7E2F0E09081EB81FC818281892B8C93B8
:100FD000A6E2B0E0E6E2F0E0808180648C93EB81F1
:100FE000FC8184818823C1F4E6E2F0E08081882FCF
:100FF00090E0807190700097B9F3A6E2B0E0E6E26D
:10100000F0E0808180618C93E4E2F0E08081918166
:10101000E981FA81918380830F900F900F900F9058
:10102000CF91DF910895DF93CF9300D0CDB7DEB796
:1010300089836A838A81813009F070C08981883010
:10104000A0F4ABE3B0E0EBE3F0E08081482F8981CE
:10105000282F30E081E090E0022E02C0880F991F17
:101060000A94E2F7842B8C93CEC089818830D0F02B
:1010700089818031B8F4A8E3B0E0E8E3F0E0808152
:10108000482F8981882F90E09C012850304081E0D2
:1010900090E0022E02C0880F991F0A94E2F7842B79
:1010A0008C93B1C089818031D0F089818831B8F4C6
:1010B000A5E3B0E0E5E3F0E08081482F8981882F47
:1010C00090E09C012051304081E090E0022E02C06F
:1010D000880F991F0A94E2F7842B8C9394C089811E
:1010E000883108F490C08981803208F08CC0A2E376
:1010F000B0E0E2E3F0E08081482F8981882F90E022
:101100009C012851304081E090E0022E02C0880FFF
:10111000991F0A94E2F7842B8C9375C08A818823E7
:1011200009F071C089818830A8F4ABE3B0E0EBE34B
:10113000F0E08081482F8981282F30E081E090E025
:10114000022E02C0880F991F0A94E2F7809584232B
:101150008C9359C089818830D8F089818031C0F45E
:10116000A8E3B0E0E8E3F0E08081482F8981882F90
:1011700090E09C012850304081E090E0022E02C0B7
:10118000880F991F0A94E2F7809584238C933BC0C3
:1011900089818031D8F089818831C0F4A5E3B0E03D
:1011A000E5E3F0E08081482F8981882F90E09C0161
:1011B0002051304081E090E0022E02C0880F991F3C
:1011C0000A94E2F7809584238C931DC0898188312D
:1011D000D0F089818032B8F4A2E3B0E0E2E3F0E03D
:1011E0008081482F8981882F90E09C0128513040D0
:1011F00081E090E0022E02C0880F991F0A94E2F766
:10120000809584238C930F900F90CF91DF91089558
:10121000DF93CF9300D0CDB7DEB78A838A81883041
:1012200090F4E9E3F0E08081482F8A81282F30E0B4
:1012300081E090E0022E02C0880F991F0A94E2F725
:101240008423898350C08A818830C0F08A818031AC
:10125000A8F4E6E3F0E08081482F8A81882F90E0AF
:101260009C012850304081E090E0022E02C0880F9F
:10127000991F0A94E2F78423898335C08A818031DB
:10128000C0F08A818831A8F4E3E3F0E08081482F40
:101290008A81882F90E09C012051304081E090E0CD
:1012A000022E02C0880F991F0A94E2F784238983D3
:1012B0001AC08A818831B8F08A818032A0F4E0E3D4
:1012C000F0E08081482F8A81882F90E09C0128518E
:1012D000304081E090E0022E02C0880F991F0A94EE
:1012E000E2F78423898389810F900F90CF91DF915A
:1012F0000895DF93CF9300D0CDB7DEB789836A839B
:101300008A81813009F070C089818830A0F4AAE315
:10131000B0E0EAE3F0E08081482F8981282F30E0B7
:1013200081E090E0022E02C0880F991F0A94E2F734
:10133000842B8C93CEC089818830D0F08981803114
:10134000B8F4A7E3B0E0E7E3F0E08081482F8981BB
:10135000882F90E09C012850304081E090E0022EE0
:1013600002C0880F991F0A94E2F7842B8C93B1C0B6
:1013700089818031D0F089818831B8F4A4E3B0E06C
:10138000E4E3F0E08081482F8981882F90E09C0180
:101390002051304081E090E0022E02C0880F991F5A
:1013A0000A94E2F7842B8C9394C08981883108F4E5
:1013B00090C08981803208F08CC0A4E3B0E0E4E3FF
:1013C000F0E08081482F8981882F90E09C0128518E
:1013D000304081E090E0022E02C0880F991F0A94ED
:1013E000E2F7842B8C9375C08A81882309F071C041
:1013F00089818830A8F4ABE3B0E0EBE3F0E08081D2
:10140000482F8981282F30E081E090E0022E02C031
:10141000880F991F0A94E2F7809584238C9359C012
:1014200089818830D8F089818031C0F4A7E3B0E0A9
:10143000E7E3F0E08081482F8981882F90E09C01CC
:101440002850304081E090E0022E02C0880F991FA2
:101450000A94E2F7809584238C933BC08981803184
:10146000D8F089818831C0F4A4E3B0E0E4E3F0E08F
:101470008081482F8981882F90E09C012051304045
:1014800081E090E0022E02C0880F991F0A94E2F7D3
:10149000809584238C931DC089818831D0F0898107
:1014A0008032B8F4A1E3B0E0E1E3F0E08081482FBE
:1014B0008981882F90E09C012851304081E090E0A4
:1014C000022E02C0880F991F0A94E2F780958423A8
:1014D0008C930F900F90CF91DF910895DF93CF936E
:1014E000CDB7DEB7AAE3B0E0EAE3F0E080818E603A
:1014F0008C93AAE3B0E0EAE3F0E08081806F8C9304
:1015000082E00E948F0A88E20E948F0A8CE00E948B
:101510008F0A81E00E948F0ACF91DF9108950F9387
:101520001F93DF93CF93CDB7DEB7C356D0400FB62E
:10153000F894DEBF0FBECDBFFE01ED59FF4F808393
:10154000ABE3B0E0EBE3F0E080818D7F8C93ABE325
:10155000B0E0EBE3F0E080818B7F8C93FE01E15AF9
:10156000FF4F80E090E0A0E8BFE380839183A283F7
:10157000B3838E01055A1F4FFE01E15AFF4F608170
:1015800071818281938120E030E04AEF54E40E942F
:101590001F02DC01CB01F80180839183A283B38316
:1015A000FE01E55AFF4F608171818281938120E0C5
:1015B00030E040E85FE30E942504882344F4FE0104
:1015C000E75AFF4F81E090E09183808364C0FE0181
:1015D000E55AFF4F608171818281938120E03FEF66
:1015E0004FE757E40E94C50318160CF043C0FE01F4
:1015F000E15AFF4F608171818281938120E030E068
:1016000040E251E40E941F02DC01CB018E01075A27
:101610001F4FBC01CD010E944900DC01CB01F80144
:10162000918380831FC0FE01E95AFF4F88EC90E050
:1016300091838083FE01E95AFF4F80819181019758
:10164000F1F7FE01E95AFF4F91838083DE01A75A2B
:10165000BF4FFE01E75AFF4F80819181019711969C
:101660009C938E93FE01E75AFF4F808191810097F2
:10167000D1F627C08E01075A1F4FFE01E55AFF4FD2
:1016800060817181828193810E944900DC01CB01DC
:10169000F80191838083DE01AB5ABF4FFE01E75A08
:1016A000FF4F808191818D939C93FE01EB5AFF4FF8
:1016B000808191810197F1F7FE01EB5AFF4F9183F1
:1016C0008083ABE3B0E0EBE3F0E0808188608C9353
:1016D000FE01EF5AFF4F80E090E0A0E8BFE3808377
:1016E0009183A283B3838E01035B1F4FFE01EF5AE8
:1016F000FF4F608171818281938120E030E04AEF69
:1017000054E40E941F02DC01CB01F8018083918325
:10171000A283B383FE01E35BFF4F6081718182810D
:10172000938120E030E040E85FE30E9425048823B5
:1017300044F4FE01E55BFF4F81E090E091838083FC
:1017400064C0FE01E35BFF4F608171818281938100
:1017500020E03FEF4FE757E40E94C50318160CF056
:1017600043C0FE01EF5AFF4F6081718182819381F6
:1017700020E030E040E251E40E941F02DC01CB0196
:101780008E01055B1F4FBC01CD010E944900DC01A9
:10179000CB01F801918380831FC0FE01E75BFF4FFF
:1017A00088EC90E091838083FE01E75BFF4F8081AE
:1017B00091810197F1F7FE01E75BFF4F91838083F1
:1017C000DE01A55BBF4FFE01E55BFF4F808191818C
:1017D000019711969C938E93FE01E55BFF4F8081EC
:1017E00091810097D1F627C08E01055B1F4FFE0146
:1017F000E35BFF4F60817181828193810E94490088
:10180000DC01CB01F80191838083DE01A95BBF4F2E
:10181000FE01E55BFF4F808191818D939C93FE01DA
:10182000E95BFF4F808191810197F1F7FE01E95B50
:10183000FF4F91838083ABE3B0E0EBE3F0E0808186
:10184000982F9F70FE01ED59FF4F8081807F892B7B
:101850008C93FE01ED5BFF4F80E090E0A0E8BFE3DA
:1018600080839183A283B3838E01015C1F4FFE01AD
:10187000ED5BFF4F608171818281938120E030E0D8
:101880004AEF54E40E941F02DC01CB01F80180837F
:101890009183A283B383FE01FF966081718182816F
:1018A000938120E030E040E85FE30E942504882334
:1018B0002CF481E090E09EAF8DAF46C0FE01FF9614
:1018C000608171818281938120E03FEF4FE757E48F
:1018D0000E94C503181664F5FE01ED5BFF4F6081A1
:1018E00071818281938120E030E040E251E40E94E6
:1018F0001F02DC01CB01BC01CD010E944900DC01CB
:10190000CB019EAF8DAF0FC088EC90E09CAF8BAF4A
:101910008BAD9CAD0197F1F79CAF8BAF8DAD9EADBC
:1019200001979EAF8DAF8DAD9EAD009769F716C044
:10193000FE01FF9660817181828193810E9449003E
:10194000DC01CB019EAF8DAF8DAD9EAD9AAF89AF5F
:1019500089AD9AAD0197F1F79AAF89AFABE3B0E0EB
:10196000EBE3F0E08081877F8C9380E090E0A0E85B
:10197000BFE38DAB9EABAFABB8AF6DA97EA98FA90E
:1019800098AD20E030E04AEF54E40E941F02DC01F1
:10199000CB0189AB9AABABABBCAB69A97AA98BA9DC
:1019A0009CA920E030E040E85FE30E942504882302
:1019B0002CF481E090E098AB8FA73FC069A97AA989
:1019C0008BA99CA920E03FEF4FE757E40E94C50395
:1019D00018164CF56DA97EA98FA998AD20E030E0CE
:1019E00040E251E40E941F02DC01CB01BC01CD01A9
:1019F0000E944900DC01CB0198AB8FA70FC088EC97
:101A000090E09EA78DA78DA59EA50197F1F79EA7B3
:101A10008DA78FA598A9019798AB8FA78FA598A997
:101A2000009769F714C069A97AA98BA99CA90E949B
:101A30004900DC01CB0198AB8FA78FA598A99CA783
:101A40008BA78BA59CA50197F1F79CA78BA7ABE370
:101A5000B0E0EBE3F0E0808188608C9380E090E080
:101A6000A0E8BFE38FA398A7A9A7BAA76FA178A5FD
:101A700089A59AA520E030E04AEF54E40E941F02B5
:101A8000DC01CB018BA39CA3ADA3BEA36BA17CA166
:101A90008DA19EA120E030E040E85FE30E94250494
:101AA00088232CF481E090E09AA389A33FC06BA126
:101AB0007CA18DA19EA120E03FEF4FE757E40E945B
:101AC000C50318164CF56FA178A589A59AA520E045
:101AD00030E040E251E40E941F02DC01CB01BC0176
:101AE000CD010E944900DC01CB019AA389A30FC05C
:101AF00088EC90E098A38F8F8F8D98A10197F1F7D4
:101B000098A38F8F89A19AA101979AA389A389A1EC
:101B10009AA1009769F714C06BA17CA18DA19EA129
:101B20000E944900DC01CB019AA389A389A19AA153
:101B30009E8F8D8F8D8D9E8D0197F1F79E8F8D8F4E
:101B4000ABE3B0E0EBE3F0E08081282F2F70FE01E3
:101B5000ED59FF4F8081882F90E082959295907F7C
:101B60009827807F9827822B8C9380E090E0A0E8D4
:101B7000BFE3898F9A8FAB8FBC8F698D7A8D8B8DE8
:101B80009C8D20E030E04AEF54E40E941F02DC010B
:101B9000CB018D8B9E8BAF8BB88F6D897E898F89A2
:101BA000988D20E030E040E85FE30E942504882320
:101BB0002CF481E090E09C8B8B8B3FC06D897E89FB
:101BC0008F89988D20E03FEF4FE757E40E94C503CF
:101BD00018164CF5698D7A8D8B8D9C8D20E030E048
:101BE00040E251E40E941F02DC01CB01BC01CD01A7
:101BF0000E944900DC01CB019C8B8B8B0FC088ECD1
:101C000090E09A8B898B89899A890197F1F79A8B51
:101C1000898B8B899C8901979C8B8B8B8B899C8969
:101C2000009769F714C06D897E898F89988D0E940D
:101C30004900DC01CB019C8B8B8B8B899C89988B19
:101C40008F878F8598890197F1F7988B8F87ABE302
:101C5000B0E0EBE3F0E08081877F8C9380E090E060
:101C6000A0E8BFE38B879C87AD87BE876B857C85AB
:101C70008D859E8520E030E04AEF54E40E941F02EB
:101C8000DC01CB018F839887A987BA876F8178851C
:101C900089859A8520E030E040E85FE30E942504D2
:101CA00088232CF481E090E09E838D833FC06F8178
:101CB000788589859A8520E03FEF4FE757E40E94B9
:101CC000C50318164CF56B857C858D859E8520E0B7
:101CD00030E040E251E40E941F02DC01CB01BC0174
:101CE000CD010E944900DC01CB019E838D830FC092
:101CF00088EC90E09C838B838B819C810197F1F72A
:101D00009C838B838D819E8101979E838D838D81A2
:101D10009E81009769F714C06F81788589859A85BF
:101D20000E944900DC01CB019E838D838D819E81C1
:101D30009A83898389819A810197F1F79A838983AC
:101D4000CD59DF4F0FB6F894DEBF0FBECDBFCF9198
:101D5000DF911F910F9108950F931F93DF93CF93FE
:101D6000CDB7DEB7C356D0400FB6F894DEBF0FBE76
:101D7000CDBFFE01ED59FF4F8083ABE3B0E0EBE355
:101D8000F0E0808182608C93ABE3B0E0EBE3F0E0C5
:101D900080818B7F8C93FE01E15AFF4F80E090E0C1
:101DA000A0E8BFE380839183A283B3838E01055AA9
:101DB0001F4FFE01E15AFF4F608171818281938143
:101DC00020E030E04AEF54E40E941F02DC01CB0126
:101DD000F80180839183A283B383FE01E55AFF4F0C
:101DE000608171818281938120E030E040E85FE38F
:101DF0000E942504882344F4FE01E75AFF4F81E046
:101E000090E09183808364C0FE01E55AFF4F6081BA
:101E100071818281938120E03FEF4FE757E40E9478
:101E2000C50318160CF043C0FE01E15AFF4F608154
:101E300071818281938120E030E040E251E40E9490
:101E40001F02DC01CB018E01075A1F4FBC01CD01DF
:101E50000E944900DC01CB01F801918380831FC0FF
:101E6000FE01E95AFF4F88EC90E091838083FE01E8
:101E7000E95AFF4F808191810197F1F7FE01E95AFC
:101E8000FF4F91838083DE01A75ABF4FFE01E75ABF
:101E9000FF4F80819181019711969C938E93FE0153
:101EA000E75AFF4F808191810097D1F627C08E01BC
:101EB000075A1F4FFE01E55AFF4F608171818281F1
:101EC00093810E944900DC01CB01F801918380835A
:101ED000DE01AB5ABF4FFE01E75AFF4F808191816F
:101EE0008D939C93FE01EB5AFF4F80819181019766
:101EF000F1F7FE01EB5AFF4F91838083ABE3B0E033
:101F0000EBE3F0E0808188608C93FE01EF5AFF4F95
:101F100080E090E0A0E8BFE380839183A283B38355
:101F20008E01035B1F4FFE01EF5AFF4F60817181ED
:101F30008281938120E030E04AEF54E40E941F0246
:101F4000DC01CB01F80180839183A283B383FE017E
:101F5000E35BFF4F608171818281938120E030E0FB
:101F600040E85FE30E942504882344F4FE01E55B1A
:101F7000FF4F81E090E09183808364C0FE01E35BCA
:101F8000FF4F608171818281938120E03FEF4FE7B5
:101F900057E40E94C50318160CF043C0FE01EF5A27
:101FA000FF4F608171818281938120E030E040E2C7
:101FB00051E40E941F02DC01CB018E01055B1F4F23
:101FC000BC01CD010E944900DC01CB01F8019183E5
:101FD00080831FC0FE01E75BFF4F88EC90E0918398
:101FE0008083FE01E75BFF4F808191810197F1F7CC
:101FF000FE01E75BFF4F91838083DE01A55BBF4F4E
:10200000FE01E55BFF4F80819181019711969C93C2
:102010008E93FE01E55BFF4F808191810097D1F6A1
:1020200027C08E01055B1F4FFE01E35BFF4F608100
:102030007181828193810E944900DC01CB01F8010A
:1020400091838083DE01A95BBF4FFE01E55BFF4FFB
:10205000808191818D939C93FE01E95BFF4F80818C
:1020600091810197F1F7FE01E95BFF4F9183808336
:10207000ABE3B0E0EBE3F0E08081982F9F70FE01CE
:10208000ED59FF4F8081807F892B8C93FE01ED5BA2
:10209000FF4F80E090E0A0E8BFE380839183A283BC
:1020A000B3838E01015C1F4FFE01ED5BFF4F60812A
:1020B00071818281938120E030E04AEF54E40E94F4
:1020C0001F02DC01CB01F80180839183A283B383DB
:1020D000FE01FF96608171818281938120E030E072
:1020E00040E85FE30E94250488232CF481E090E01F
:1020F0009EAF8DAF46C0FE01FF96608171818281E7
:10210000938120E03FEF4FE757E40E94C503181684
:1021100064F5FE01ED5BFF4F6081718182819381E7
:1021200020E030E040E251E40E941F02DC01CB01DC
:10213000BC01CD010E944900DC01CB019EAF8DAFF7
:102140000FC088EC90E09CAF8BAF8BAD9CAD01973E
:10215000F1F79CAF8BAF8DAD9EAD01979EAF8DAF6C
:102160008DAD9EAD009769F716C0FE01FF966081A8
:102170007181828193810E944900DC01CB019EAF75
:102180008DAF8DAD9EAD9AAF89AF89AD9AAD0197F8
:10219000F1F79AAF89AFABE3B0E0EBE3F0E0808119
:1021A000877F8C9380E090E0A0E8BFE38DAB9EAB8F
:1021B000AFABB8AF6DA97EA98FA998AD20E030E094
:1021C0004AEF54E40E941F02DC01CB0189AB9AABB9
:1021D000ABABBCAB69A97AA98BA99CA920E030E084
:1021E00040E85FE30E94250488232CF481E090E01E
:1021F00098AB8FA73FC069A97AA98BA99CA920E0B9
:102200003FEF4FE757E40E94C50318164CF56DA940
:102210007EA98FA998AD20E030E040E251E40E9411
:102220001F02DC01CB01BC01CD010E944900DC0191
:10223000CB0198AB8FA70FC088EC90E09EA78DA72D
:102240008DA59EA50197F1F79EA78DA78FA598A9AB
:10225000019798AB8FA78FA598A9009769F714C02D
:1022600069A97AA98BA99CA90E944900DC01CB012C
:1022700098AB8FA78FA598A99CA78BA78BA59CA58A
:102280000197F1F79CA78BA7ABE3B0E0EBE3F0E09D
:10229000808188608C9380E090E0A0E8BFE38FA30A
:1022A00098A7A9A7BAA76FA178A589A59AA520E0A4
:1022B00030E04AEF54E40E941F02DC01CB018BA303
:1022C0009CA3ADA3BEA36BA17CA18DA19EA120E088
:1022D00030E040E85FE30E94250488232CF481E08D
:1022E00090E09AA389A33FC06BA17CA18DA19EA180
:1022F00020E03FEF4FE757E40E94C50318164CF566
:102300006FA178A589A59AA520E030E040E251E4CC
:102310000E941F02DC01CB01BC01CD010E944900DB
:10232000DC01CB019AA389A30FC088EC90E098A3AD
:102330008F8F8F8D98A10197F1F798A38F8F89A127
:102340009AA101979AA389A389A19AA1009769F7F5
:1023500014C06BA17CA18DA19EA10E944900DC014B
:10236000CB019AA389A389A19AA19E8F8D8F8D8D70
:102370009E8D0197F1F79E8F8D8FABE3B0E0EBE37D
:10238000F0E08081282F2F70FE01ED59FF4F8081F2
:10239000882F90E082959295907F9827807F98274C
:1023A000822B8C9380E090E0A0E8BFE3898F9A8F26
:1023B000AB8FBC8F698D7A8D8B8D9C8D20E030E04A
:1023C0004AEF54E40E941F02DC01CB018D8B9E8BEF
:1023D000AF8BB88F6D897E898F89988D20E030E032
:1023E00040E85FE30E94250488232CF481E090E01C
:1023F0009C8B8B8B3FC06D897E898F89988D20E067
:102400003FEF4FE757E40E94C50318164CF5698D5E
:102410007A8D8B8D9C8D20E030E040E251E40E946B
:102420001F02DC01CB01BC01CD010E944900DC018F
:10243000CB019C8B8B8B0FC088EC90E09A8B898BA7
:1024400089899A890197F1F79A8B898B8B899C8965
:1024500001979C8B8B8B8B899C89009769F714C0A3
:102460006D897E898F89988D0E944900DC01CB019E
:102470009C8B8B8B8B899C89988B8F878F85988978
:102480000197F1F7988B8F87ABE3B0E0EBE3F0E0D7
:102490008081877F8C9380E090E0A0E8BFE38B870A
:1024A0009C87AD87BE876B857C858D859E8520E06A
:1024B00030E04AEF54E40E941F02DC01CB018F831D
:1024C0009887A987BA876F81788589859A8520E062
:1024D00030E040E85FE30E94250488232CF481E08B
:1024E00090E09E838D833FC06F81788589859A8532
:1024F00020E03FEF4FE757E40E94C50318164CF564
:102500006B857C858D859E8520E030E040E251E43E
:102510000E941F02DC01CB01BC01CD010E944900D9
:10252000DC01CB019E838D830FC088EC90E09C83FF
:102530008B838B819C810197F1F79C838B838D81A9
:102540009E8101979E838D838D819E81009769F77F
:1025500014C06F81788589859A850E944900DC01C5
:10256000CB019E838D838D819E819A83898389810E
:102570009A810197F1F79A838983CD59DF4F0FB67E
:10258000F894DEBF0FBECDBFCF91DF911F910F91A9
:102590000895DF93CF9300D00F92CDB7DEB79B8322
:1025A0008A8319820EC08981282F30E08A819B811D
:1025B000FC01E20FF31F80810E94AC0E89818F5FC6
:1025C00089838981282F30E08A819B81FC01E20F79
:1025D000F31F8081882339F70F900F900F90CF91D0
:1025E000DF910895DF93CF9300D000D00F92CDB745
:1025F000DEB78A836B838A81282F30E03D832C836A
:102600008C819D8181309105C1F02C813D812230EA
:1026100031052CF48C819D81009761F019C02C81CB
:102620003D812230310569F08C819D818330910597
:1026300061F00EC08B8189830BC08B81805C8983A4
:1026400007C08B81805F898303C08B81805B898316
:10265000898180680E948F0A0F900F900F900F90D1
:102660000F90CF91DF910895DF93CF9300D000D0EA
:10267000CDB7DEB789836A835C834B8389816A81A6
:102680000E94F2128B819C810E94C9120F900F90C0
:102690000F900F90CF91DF910895DF93CF93CDB737
:1026A000DEB762970FB6F894DEBF0FBECDBF9A8B30
:1026B000898B89899A899E012F5F3F4FB9014AE032
:1026C00050E00E943416CE0101960E94C912629613
:1026D0000FB6F894DEBF0FBECDBFCF91DF91089546
:1026E000DF93CF93CDB7DEB781E00E948F0ACF9101
:1026F000DF9108951F920F920FB60F9211242F931E
:102700003F934F935F936F937F938F939F93AF9379
:10271000BF93EF93FF93DF93CF93CDB7DEB7809155
:10272000800190918101009729F0E0918001F09162
:1027300081010995CF91DF91FF91EF91BF91AF9109
:102740009F918F917F916F915F914F913F912F91C9
:102750000F900FBE0F901F901895DF93CF93CDB7BA
:10276000DEB7E3E5F0E01082E2E5F0E01082A9E5F3
:10277000B0E0E9E5F0E0808182608C93A3E5B0E011
:10278000E3E5F0E080818C608C93CF91DF91089538
:10279000DF93CF9300D00F92CDB7DEB789838981C5
:1027A000282F30E03B832A838A819B8184309105E6
:1027B000C9F12A813B812530310584F48A819B81CE
:1027C0008230910529F12A813B81233031052CF596
:1027D0008A819B8181309105B1F03DC02A813B8186
:1027E0002630310549F18A819B8186309105FCF0C4
:1027F0002A813B812730310521F18A819B818830F4
:10280000910521F128C0ECE5F0E08FE1808327C03D
:10281000ECE5F0E08EE3808322C0ECE5F0E08EE5AD
:1028200080831DC0ECE5F0E08DE7808318C0ECE507
:10283000F0E08CE9808313C0ECE5F0E08BEB808363
:102840000EC0ECE5F0E08BED808309C0ECE5F0E034
:102850008AEF808304C0ECE5F0E08AEF80830F907C
:102860000F900F90CF91DF910895DF93CF93CDB765
:10287000DEB7A3E5B0E0E3E5F0E080818E7F8C93E6
:10288000A3E5B0E0E3E5F0E080818D7F8C93A3E5E4
:10289000B0E0E3E5F0E080818B7F8C93ECE5F0E045
:1028A0001082CF91DF910895DF93CF93CDB7DEB73C
:1028B000AFE5B0E0EFE5F0E0808180688C93CF91E8
:1028C000DF910895DF93CF93CDB7DEB7AFE5B0E0EA
:1028D000EFE5F0E080818F778C93CF91DF910895C1
:1028E000DF93CF93CDB7DEB728970FB6F894DEBF4E
:1028F0000FBECDBF6D837E838F839887E2E5F0E0C6
:10290000108219821A821B821C821BC0E8E5F0E04B
:102910008081882F90E0827090700097B9F3A8E5CD
:10292000B0E0E8E5F0E0808182608C9389819A8153
:10293000AB81BC810196A11DB11D89839A83AB83B4
:10294000BC8329813A814B815C818D819E81AF81DD
:10295000B885281739074A075B07C0F228960FB6D3
:10296000F894DEBF0FBECDBFCF91DF910895DF9306
:10297000CF9300D0CDB7DEB79A83898389819A81BE
:1029800090938101809380010F900F90CF91DF9100
:102990000895DF93CF9300D000D00F92CDB7DEB76C
:1029A0001D821C821B821A828BE489838C819D810B
:1029B0009B838A8380E161E00E94790981E161E083
:1029C0000E94790980E161E00E94130881E160E0E2
:1029D0000E9413088BE061E00E947909AFE5B0E046
:1029E000EFE5F0E0808180688C930E946E0A809110
:1029F0007D0190917E010E9475070E94BB150E9487
:102A0000701380E690E00E94C91280E06DE00E94A1
:102A1000F21289810E94D01520917D0130917E01B2
:102A200082E891E0B9010E94C607809182019091ED
:102A30008301CC01A0E0B0E02EEE32E040E050E0B7
:102A4000BC01CD010E94DE15DC01CB01BC01CD0132
:102A50000E940705DC01CB01BC01CD0120E030ED77
:102A60004FEB54E40E941903DC01CB01BC01CD0102
:102A70000E944900DC01CB019D838C838A819B816C
:102A80009C012F5F3F4F8C819D818217930710F12E
:102A90008C819D819B838A838981882F90E0AA27DE
:102AA00097FDA095BA2FBC01CD010E945504DC0111
:102AB000CB01BC01CD012EEA37E441E85FE30E947F
:102AC0001F02DC01CB01BC01CD010E944900DC01E9
:102AD000CB0189838A819B819C01215030408C816C
:102AE0009D812817390710F18C819D819B838A83F2
:102AF0008981882F90E0AA2797FDA095BA2FBC0165
:102B0000CD010E945504DC01CB01BC01CD0124EABA
:102B100030E74DE75FE30E941F02DC01CB01BC01FF
:102B2000CD010E944900DC01CB0189838C819D810C
:102B30000E944D138C819D818436910538F480E08C
:102B40006FE00E94F21280E20E94AC0E8C819D81A7
:102B50008A30910508F059CF80E06EE00E94F212B1
:102B600080E20E94AC0E80E06FE00E94F21280E2F0
:102B70000E94AC0E4ACFDF93CF93CDB7DEB7E2E52C
:102B8000F0E01082ECE5F0E08DE48083A3E5B0E0B6
:102B9000E3E5F0E080818B668C93CF91DF9108951F
:102BA000DF93CF930F92CDB7DEB78983ECE5F0E0EA
:102BB000898180830F90CF91DF910895629FD0012A
:102BC000739FF001829FE00DF11D649FE00DF11DE8
:102BD000929FF00D839FF00D749FF00D659FF00D97
:102BE0009927729FB00DE11DF91F639FB00DE11D84
:102BF000F91FBD01CF01112408952F923F924F92EA
:102C00005F926F927F928F929F92AF92BF92CF927C
:102C1000DF92EF92FF920F931F93CF93DF93CDB785
:102C2000DEB7CA1BDB0B0FB6F894DEBF0FBECDBFFD
:102C300009942A88398848885F846E847D848C84CE
:102C40009B84AA84B984C884DF80EE80FD800C81D7
:102C50001B81AA81B981CE0FD11D0FB6F894DEBFBA
:102C60000FBECDBFED010895FB019F01E8944230F6
:102C7000C4F04532B4F44A3029F497FB1EF4909521
:102C800081959F4F642F77270E946516805D8A3358
:102C90000CF0895D8193CB010097A1F716F45DE2FA
:102CA00051931082C9010C945516DC01FC01672F69
:102CB00071917723E1F7329704C07C916D93708313
:102CC0006291AE17BF07C8F30895AA1BBB1B51E161
:102CD00007C0AA1FBB1FA617B70710F0A61BB70B8C
:102CE000881F991F5A95A9F780959095BC01CD0131
:062CF0000895F894FFCFE7
:102CF60054656D702052656164696E673D00000021
:102D060000000000000000010202030303030404A4
:102D16000404040404040505050505050505050563
:102D26000505050505050606060606060606060643
:102D3600060606060606060606060606060606062D
:102D46000606060606060707070707070707070713
:102D560007070707070707070707070707070707FD
:102D660007070707070707070707070707070707ED
:102D760007070707070707070707070707070707DD
:102D860007070707070708080808080808080808C3
:102D960008080808080808080808080808080808AD
:102DA600080808080808080808080808080808089D
:102DB600080808080808080808080808080808088D
:102DC600080808080808080808080808080808087D
:102DD600080808080808080808080808080808086D
:102DE600080808080808080808080808080808085D
:102DF600080808080808080808080808080808084D
:102E0600080808080808000000000006007601000F
:00000001FF
