S01D00004144435F54454D505F4175746F5F547269676765722E737265637F
S11300000C9432000C944F000C944F000C940F018C
S11300100C944F000C944F000C944F000C944F0020
S11300200C944F000C944F000C947C020C944F00E1
S11300300C944F000C944F000C944F000C944F0000
S11300400C944F000C944F000C944F000C944F00F0
S11300500C944F00B802BB02BE02C102C402C70224
S1130060CA02CD0211241FBECFE5D8E0DEBFCDBF4A
S113007010E0A0E6B0E0EEEEF8E002C005900D92CC
S1130080A837B107D9F720E0A8E7B0E001C01D9276
S1130090AE37B207E1F70E9418020C9475040C9471
S11300A00000FC0117B897B18081892B9281892BBC
S11300B09181892B87B996B18381892B9481892B6E
S11300C09581892B86B990B78681892B80BF379A11
S11300D00895DC01FB0192819770928397B1907E21
S11300E097B927B19281922B97B9369A948191113D
S11300F007C0349BFECF349A84B195B18D939C9301
S11301000895613009F043C0883068F44AB321E0AF
S113011030E0B90102C0660F771F8A95E2F7CB0180
S1130120842B8ABB089598EF980F983068F447B3EE
S113013021E030E0B90102C0660F771F9A95E2F71B
S1130140CB01842B87BB089590EF980F983068F407
S113015044B321E030E0B90102C0660F771F9A95DD
S1130160E2F7CB01842B84BB089598EE980F983066
S113017008F054C044B321E030E0B90102C0660F76
S1130180771F9A95E2F7CB01842B84BB0895611104
S113019045C0883070F44BB321E030E0B90102C0AF
S11301A0660F771F8A95E2F7CB01809584238BBB7A
S11301B0089598EF980F983070F447B321E030E039
S11301C0B90102C0660F771F9A95E2F7CB018095BB
S11301D0842387BB089590EF980F983070F444B34C
S11301E021E030E0B90102C0660F771F9A95E2F76B
S11301F0CB018095842384BB089598EE980F9830A2
S113020068F441B321E030E0B90102C0660F771F02
S11302109A95E2F7CB018095842381BB08951F92C0
S11302200F920FB60F9211242F933F934F935F9326
S11302306F937F938F939F93AF93BF93EF93FF93AA
S1130240E0917800F0917900309709F00995FF91D9
S1130250EF91BF91AF919F918F917F916F915F913A
S11302604F913F912F910F900FBE0F901F901895B3
S1130270D998DA98E9EFF0E03197F1F700C000007F
S1130280DB9AE9EFF0E03197F1F700C000009BB38F
S11302909F70282F207F922B9BBBE9EFF0E03197D2
S11302A0F1F700C00000DB98E9EFF0E03197F1F7D7
S11302B000C00000DB9AE9EFF0E03197F1F700C0ED
S11302C000002BB32F70F0E18F9FC0011124822B0B
S11302D08BBB89EF90E00197F1F700C00000DB9839
S11302E0E9EFF0E03197F1F700C0000008958AB318
S11302F08E608ABB8AB3806F8ABB82E00E94380119
S113030088E20E9438018CE00E94380181E00E945A
S113031038010895D99ADA98E9EFF0E03197F1F7C6
S113032000C00000DB9AE9EFF0E03197F1F700C07C
S113033000009BB39F70282F207F922B9BBBE9EF7B
S1130340F0E03197F1F700C00000DB98E9EFF0E04E
S11303503197F1F700C00000DB9AE9EFF0E0319744
S1130360F1F700C000002BB32F70F0E18F9FC001A4
S11303701124822B8BBB89EF90E00197F1F700C029
S11303800000DB98E9EFF0E03197F1F700C00000DE
S113039008950F931F93CF93FC018081882359F014
S11303A08F01C0E00E948A01CF5FF801EC0FF11DBC
S11303B080818111F7CFCF911F910F9108958130E2
S11303C041F028F0823041F0833049F00AC0962F82
S11303D008C090E4960F05C090E1960F02C090E526
S11303E0960F892F80680E9438010895CF93DF9378
S11303F0CDB7DEB760970FB6F894DEBF0FBECDBFA2
S11304004AE050E0BE016F5F7F4F0E943504CE0189
S113041001960E94C90160960FB6F894DEBF0FBE24
S1130420CDBFDF91CF91089581E00E9438010895F6
S11304300E94A50284E00E94AE0260E080E00E9477
S113044081008FB780688FBF0E9477018091600020
S1130450909161000E9451000E94140289E690E08C
S11304600E94C9016CE080E00E94DF01609160009D
S1130470709161008AE790E00E94690020917A00FF
S113048030917B00AEEEB2E00E9426040E949203FB
S113049020E030ED4FEB54E40E94F1020E9463032C
S11304A0EB01CB010E94F601C436D10570F46EE075
S11304B080E00E94DF0180E20E948A016FE080E018
S11304C00E94DF0180E20E948A012A9770F46DE0A5
S11304D080E00E94DF0180E20E948A016EE080E0F9
S11304E00E94DF0180E20E948A0168EC70E080E0F3
S11304F090E00E94D302B6CF1F920F920FB60F92D4
S113050011242F933F934F935F936F937F938F9314
S11305109F93AF93BF93EF93FF93E0917C00F0918F
S11305207D00309709F00995FF91EF91BF91AF914C
S11305309F918F917F916F915F914F913F912F91F7
S11305400F900FBE0F901F90189513BE12BE89B75F
S1130550826089BF83B78C6083BF089590E0FC01FB
S11305603197E830F105E0F4E65DFF4F0C94200488
S11305708FE18CBF08958EE38CBF08958EE58CBF08
S113058008958DE78CBF08958CE98CBF08958BEB9B
S11305908CBF08958BED8CBF08958AEF8CBF0895AE
S11305A08AEF8CBF08950F931F938B019C0112BE99
S11305B0672B682B692B91F040E050E0BA0108B634
S11305C001FEFDCF88B7826088BF4F5F5F4F6F4FDA
S11305D07F4F041715072607370789F71F910F91D7
S11305E008950E9405030C94E6030E94DF0358F06B
S11305F00E94D80340F029F45F3F29F00C94CF0304
S113060051110C941A040C94D5030E94F70368F357
S11306109923B1F3552391F3951B550BBB27AA27B7
S113062062177307840738F09F5F5F4F220F331FF1
S1130630441FAA1FA9F335D00E2E3AF0E0E832D0B9
S113064091505040E695001CCAF72BD0FE2F29D0BC
S1130650660F771F881FBB1F261737074807AB078E
S1130660B0E809F0BB0B802DBF01FF2793585F4F03
S11306703AF09E3F510578F00C94CF030C941A0481
S11306805F3FE4F3983ED4F3869577956795B795E5
S1130690F7959F5FC9F7880F911D9695879597F9F0
S11306A00895E1E0660F771F881FBB1F6217730769
S11306B08407BA0720F0621B730B840BBA0BEE1F7E
S11306C088F7E09508950E94FF0388F09F5798F0FB
S11306D0B92F9927B751B0F0E1F0660F771F881F43
S11306E0991F1AF0BA95C9F714C0B13091F00E945D
S11306F01904B1E008950C941904672F782F882702
S1130700B85F39F0B93FCCF3869577956795B39583
S1130710D9F73EF490958095709561957F4F8F4FF2
S11307209F4F0895E89409C097FB3EF490958095F7
S1130730709561957F4F8F4F9F4F9923A9F0F92FA3
S113074096E9BB279395F695879577956795B79521
S1130750F111F8CFFAF4BB0F11F460FF1BC06F5F07
S11307607F4F8F4F9F4F16C0882311F096E911C019
S1130770772321F09EE8872F762F05C0662371F03A
S113078096E8862F70E060E02AF09A95660F771F4E
S1130790881FDAF7880F9695879597F9089597F942
S11307A09F6780E870E060E008959FEF80EC089513
S11307B000240A941616170618060906089500243C
S11307C00A9412161306140605060895092E0394B6
S11307D0000C11F4882352F0BB0F40F4BF2B11F42A
S11307E060FF04C06F5F7F4F8F4F9F4F089557FD89
S11307F09058440F551F59F05F3F71F04795880F8B
S113080097FB991F61F09F3F79F087950895121621
S113081013061406551FF2CF4695F1DF08C01616CD
S113082017061806991FF1CF86957105610508947E
S11308300895E894BB2766277727CB0197F9089595
S1130840EE0FFF1F0590F491E02D0994A29FB001D3
S1130850B39FC001A39F700D811D1124911DB29FF0
S1130860700D811D1124911D08954532510520F408
S1130870423010F00C944004FB011082CB01089527
S1130880BB274A3031F4992322F4BDE29095819537
S11308909F4F0C944C04BB27FB015527AA27880FB4
S11308A0991FAA1FA41710F0A41B83955051B9F7E0
S11308B0A05DAA3308F0A95DA193009779F7B1115F
S11308C0B1931192CB010C946504DC01FC01672FF8
S11308D071917723E1F7329704C07C916D93708313
S11108E06291AE17BF07C8F30895F894FFCFD6
S11308EE620000000020000640414443205265612E
S10B08FE64696E673D200000EF
S9030000FC
