S01D00004144435F54454D505F467265655F52756E6E696E672E7372656389
S11300000C942A000C9447000C9447000C9447006D
S11300100C9447000C9447000C9447000C94470040
S11300200C9447000C9447000C9440020C94470035
S11300300C9447000C9447000C9447000C94470020
S11300400C9447000C9447000C9447000C94470010
S11300500C94470011241FBECFE5D8E0DEBFCDBF0E
S113006010E0A0E6B0E0E2EDF7E002C005900D92EA
S1130070A437B107D9F720E0A4E7B0E001C01D928E
S1130080A837B207E1F70E94E7010C94E7030C9448
S11300900000FC0117B897B18081892B9281892BCC
S11300A09181892B87B996B18381892B9481892B7E
S11300B09581892B86B990B78681892B80BF379A21
S11300C00895DC01FB0192819770928397B1907E31
S11300D097B927B19281922B97B9369A948191114D
S11300E007C0349BFECF349A84B195B18D939C9311
S11300F00895613009F043C0883068F44AB321E0C0
S113010030E0B90102C0660F771F8A95E2F7CB0190
S1130110842B8ABB089598EF980F983068F447B3FE
S113012021E030E0B90102C0660F771F9A95E2F72B
S1130130CB01842B87BB089590EF980F983068F417
S113014044B321E030E0B90102C0660F771F9A95ED
S1130150E2F7CB01842B84BB089598EE980F983076
S113016008F054C044B321E030E0B90102C0660F86
S1130170771F9A95E2F7CB01842B84BB0895611114
S113018045C0883070F44BB321E030E0B90102C0BF
S1130190660F771F8A95E2F7CB01809584238BBB8A
S11301A0089598EF980F983070F447B321E030E049
S11301B0B90102C0660F771F9A95E2F7CB018095CB
S11301C0842387BB089590EF980F983070F444B35C
S11301D021E030E0B90102C0660F771F9A95E2F77B
S11301E0CB018095842384BB089598EE980F9830B2
S11301F068F441B321E030E0B90102C0660F771F13
S11302009A95E2F7CB018095842381BB0895D99810
S1130210DA98E9EFF0E03197F1F700C00000DB9ADB
S1130220E9EFF0E03197F1F700C000009BB39F7055
S1130230282F207F922B9BBBE9EFF0E03197F1F759
S113024000C00000DB98E9EFF0E03197F1F700C05F
S11302500000DB9AE9EFF0E03197F1F700C000000D
S11302602BB32F70F0E18F9FC0011124822B8BBB25
S113027089EF90E00197F1F700C00000DB98E9EF07
S1130280F0E03197F1F700C0000008958AB38E6062
S11302908ABB8AB3806F8ABB82E00E94070188E22E
S11302A00E9407018CE00E94070181E00E9407017F
S11302B00895D99ADA98E9EFF0E03197F1F700C0A0
S11302C00000DB9AE9EFF0E03197F1F700C000009D
S11302D09BB39F70282F207F922B9BBBE9EFF0E00C
S11302E03197F1F700C00000DB98E9EFF0E03197B7
S11302F0F1F700C00000DB9AE9EFF0E03197F1F785
S113030000C000002BB32F70F0E18F9FC0011124B7
S1130310822B8BBB89EF90E00197F1F700C00000BE
S1130320DB98E9EFF0E03197F1F700C000000895A1
S11303300F931F93CF93FC018081882359F08F0181
S1130340C0E00E945901CF5FF801EC0FF11D8081DC
S11303508111F7CFCF911F910F910895813041F012
S113036028F0823041F0833049F00AC0962F08C04B
S113037090E4960F05C090E1960F02C090E5960FA9
S1130380892F80680E9407010895CF93DF93CDB72A
S1130390DEB760970FB6F894DEBF0FBECDBF4AE05C
S11303A050E0BE016F5F7F4F0E94A703CE0101960C
S11303B00E94980160960FB6F894DEBF0FBECDBFC1
S11303C0DF91CF91089581E00E940701089560E0D4
S11303D080E00E9479008FB780688FBF0E94460139
S11303E080916000909161000E9449000E94E301A5
S11303F089E690E00E94980169E080E00E94AE01E5
S1130400609160007091610084E790E00E94610057
S11304102091740030917500AEEEB2E00E94980312
S11304200E940A0320E030ED4FEB54E40E9469027D
S11304300E94DB02EB01CB010E94C501C436D10549
S113044070F46BE080E00E94AE0180E20E945901EA
S11304506CE080E00E94AE0180E20E9459012A977C
S113046058F66AE080E00E94AE0180E20E945901E1
S11304706BE080E00E94AE0180E20E945901BCCF93
S11304801F920F920FB60F9211242F933F934F9305
S11304905F936F937F938F939F93AF93BF93EF93E8
S11304A0FF93E0917600F0917700309709F0099579
S11304B0FF91EF91BF91AF919F918F917F916F9138
S11304C05F914F913F912F910F900FBE0F901F900E
S11304D018950E947D020C945E030E94570358F005
S11304E00E94500340F029F45F3F29F00C94470325
S11304F051110C9492030C944D030E946F0368F302
S11305009923B1F3552391F3951B550BBB27AA27C8
S113051062177307840738F09F5F5F4F220F331F02
S1130520441FAA1FA9F335D00E2E3AF0E0E832D0CA
S113053091505040E695001CCAF72BD0FE2F29D0CD
S1130540660F771F881FBB1F261737074807AB079F
S1130550B0E809F0BB0B802DBF01FF2793585F4F14
S11305603AF09E3F510578F00C9447030C949203A3
S11305705F3FE4F3983ED4F3869577956795B795F6
S1130580F7959F5FC9F7880F911D9695879597F901
S11305900895E1E0660F771F881FBB1F621773077A
S11305A08407BA0720F0621B730B840BBA0BEE1F8F
S11305B088F7E09508950E94770388F09F5798F094
S11305C0B92F9927B751B0F0E1F0660F771F881F54
S11305D0991F1AF0BA95C9F714C0B13091F00E946E
S11305E09103B1E008950C949103672F782F882725
S11305F0B85F39F0B93FCCF3869577956795B39595
S1130600D9F73EF490958095709561957F4F8F4F03
S11306109F4F0895E89409C097FB3EF49095809508
S1130620709561957F4F8F4F9F4F9923A9F0F92FB4
S113063096E9BB279395F695879577956795B79532
S1130640F111F8CFFAF4BB0F11F460FF1BC06F5F18
S11306507F4F8F4F9F4F16C0882311F096E911C02A
S1130660772321F09EE8872F762F05C0662371F04B
S113067096E8862F70E060E02AF09A95660F771F5F
S1130680881FDAF7880F9695879597F9089597F953
S11306909F6780E870E060E008959FEF80EC089524
S11306A000240A941616170618060906089500244D
S11306B00A9412161306140605060895092E0394C7
S11306C0000C11F4882352F0BB0F40F4BF2B11F43B
S11306D060FF04C06F5F7F4F8F4F9F4F089557FD9A
S11306E09058440F551F59F05F3F71F04795880F9C
S11306F097FB991F61F09F3F79F087950895121633
S113070013061406551FF2CF4695F1DF08C01616DE
S113071017061806991FF1CF86957105610508948F
S11307200895E894BB2766277727CB0197F90895A6
S1130730A29FB001B39FC001A39F700D811D11241E
S1130740911DB29F700D811D1124911D0895453294
S1130750510520F4423010F00C94B203FB011082D6
S1130760CB010895BB274A3031F4992322F4BDE22A
S1130770909581959F4F0C94BE03BB27FB01552791
S1130780AA27880F991FAA1FA41710F0A41B8395EA
S11307905051B9F7A05DAA3308F0A95DA193009761
S11307A079F7B111B1931192CB010C94D703DC0109
S11307B0FC01672F71917723E1F7329704C07C9194
S11307C06D9370836291AE17BF07C8F30895F894D0
S10507D0FFCF55
S11307D26200000000000006004469676974616CED
S10707E23D200000B2
S9030000FC
